:100000000C946B000C94ED010C9405020C94880088
:100010000C9488000C9488000C9488000C94880040
:100020000C9488000C941D020C9488000C94880099
:100030000C9488000C94A1090C9488000C948800FE
:100040000C9488000C9488000C9488000C94880010
:100050000C94880007634236B79BD8A71A396856B4
:1000600018AEBAAB558C1D3CB7CC5763BD6DEDFDDA
:10007000753EF6177231BF000000803F0800000097
:10008000BE922449123EABAAAA2ABECDCCCC4C3E8D
:1000900000000080BEABAAAAAA3E00000000BF007C
:1000A0000000803F0000000000084178D3BB438778
:1000B000D1133D190E3CC3BD4282AD2B3E68EC828C
:1000C00076BED98FE1A93E4C80EFFFBE01C4FF7F11
:1000D0003F000000000011241FBECFE5D8E0DEBFC6
:1000E000CDBF11E0A0E6B0E0E4E8FCE102C005907D
:1000F0000D92AA3FB107D9F722E0AAEFB1E001C003
:100100001D92AD3EB207E1F70E94C6010C94400E6D
:100110000C94000081B3837F81BB82B38C6082BB6F
:1001200085B7826085BF85B78C6085BF8BB78068D7
:100130008BBF8BB780648BBF8AB780688ABF0895F6
:1001400081EE8DBD8BE78CBD89B7846089BF1FBCF4
:100150008EB584608EBD08950E94240681E690E0ED
:100160000E94F90508950E9418080E945D020E94ED
:10017000030864E670E082E090E00E9464020E945E
:1001800071060E94320A78940E948A000E949902A5
:1001900082B38F7B82BB84EF91E00E947F020E943A
:1001A0004C050E94A0000E9428080E94AC0085B760
:1001B0008F7885BF85B7806885BF889585B78F772D
:1001C00085BF089582E00E948E0680E790E00E943D
:1001D000F90564EF71E082E090E00E946402F89417
:1001E00085B3816085BB85B78F7885BF85B780680B
:1001F00085BF889585B78F7785BFFFCFB09B1AC025
:100200008091FF0182FD46C0EFEFF1E080818460C4
:10021000808382E00E948E0680E890E00E94F905CB
:1002200066E970E081E090E00E9464028BB780682C
:100230008BBF08958091FF0182FF2CC0EFEFF1E0AA
:1002400080818B7F808380818F7E808380818F7B84
:10025000808382E00E948E068FE890E00E94F9057C
:100260008BB78F778BBF0E94240866E970E081E02E
:1002700090E00E94640288EE93E00E947F0281E099
:100280000E948E068FE990E00E94F90588EE93E0C7
:100290000E947F020895B19917C00E94240680EB46
:1002A00090E00E94F9050E9424088BB78F778BBFDE
:1002B0006AEF70E081E090E00E94640288EE93E0D3
:1002C0000E947F020E94E2000895E0E0F2E0808157
:1002D0008D7F808382E00E948E0681EC90E00E94F8
:1002E000F9050E9424086AEF70E081E090E00E9426
:1002F000640288EE93E00E947F0262ED70E080EF7E
:1003000090E00E942F080E94240681EC90E00E9459
:10031000F9050E94E200CF93DF938091FF0182FFF5
:100320002DC064E670E081E090E00E94640280915C
:10033000FF0184FD12C0CFEFD1E088818061888306
:100340000E941D0882E00E948E068BEF90E00E94C2
:10035000F90588818064888311C0CFEFD1E088815E
:100360008F7E88830E94240882E00E948E068FE997
:1003700090E00E94F90588818F7B8883EFEFF1E0A0
:1003800080818E7F8083DF91CF9108950E94B3009A
:100390008091FF0181FF0CC00E94FE008091FF014F
:1003A00086FD0E944B01EFEFF1E080818D7F80831D
:1003B0008091000281FD0E9465018091FF0180FD16
:1003C0000E948B0185B78F7885BF85B7806885BF10
:1003D000889585B78F7785BFDBCF1F920F920FB6B9
:1003E0000F9211248F93EF93FF93EFEFF1E0808151
:1003F000816080838BB780688BBFFF91EF918F9175
:100400000F900FBE0F901F9018951F920F920FB66E
:100410000F9211248F93EF93FF93E0E0F2E080813D
:10042000826080838BB780648BBFFF91EF918F9147
:100430000F900FBE0F901F9018951F920F920FB63E
:100440000F9211248F93EF93FF9381EE8DBD8BE775
:100450008CBD8091FF0181FD0EC08091FB018F5FFB
:100460008093FB01823038F0EFEFF1E08081826011
:1004700080831092FB018091FA018F5F8093FA01D3
:10048000843110F01092FA018091FA01813051F01C
:1004900028F0823019F0833041F404C085B38160C4
:1004A00085BB03C085B38E7F85BBFF91EF918F9194
:1004B0000F900FBE0F901F90189584B3826084BB7D
:1004C00085B38D7F85BB08950F931F93CF938B01C9
:1004D0000EC085B3826085BBC8010E947F0285B3D0
:1004E0008D7F85BB84E690E00E947F028C2FCFEF4A
:1004F000C80F8111EECFCF911F910F91089507C0C2
:100500008FEC97E00197F1F700C00000C9019C0152
:1005100021503109892BA1F7089505C082E08A9501
:10052000F1F700C0C9019C0121503109892BB1F7B5
:10053000089581B3806481BB82B38F7B82BB0895B1
:10054000AF92BF92CF92DF92EF92FF920F931F93E1
:10055000CF936C017B018A010E94400A8432E1F74B
:100560000E94400A8734C1F70E94400A8035A1F7F3
:100570000E94400A823581F70E94400A8D3461F75B
:100580000E94400A833441F70E94400A8C32E1F70E
:100590000E94400A8C32E1F70E94400A8C32E1F757
:1005A000C0E00AC056018FEFA81AB80A0E94400A9C
:1005B000F6018083CF5F6501C930A0F30E94400A35
:1005C0008E3411F08335D1F70E94400A8C32E1F766
:1005D000C0E00AC06701FFEFCF1ADF0A0E94400A9D
:1005E000F7018083CF5F7601CA30A0F30E94400AF2
:1005F000853411F08735D1F70E94400A8C32E1F73B
:10060000C0E00AC07801FFEFEF1AFF0A0E94400A1B
:10061000F8018083CF5F8701C530A0F3CF911F9190
:100620000F91FF90EF90DF90CF90BF90AF90089523
:10063000CF93C4ECC09301028BE091E00E94F905D6
:10064000C093010288E191E00E94F90588EE93E0F1
:100650000E947F0282E00E948E06CF910895CF9380
:10066000DF93EC018AE891E00E94440ACE010E94E7
:10067000440A80E291E00E94440A0E94400A8E33BC
:10068000E1F781E0DF91CF910895CF93DF93E0E030
:10069000F2E080818F7E80831092FE01EFEFF1E027
:1006A00080818F7780838FE991E00E94440AC0E0C7
:1006B00001C0CD2F8091FF0188236CF4EFEFF1E0B2
:1006C00080818F77808363E271E082E092E00E9414
:1006D000340E892B99F0D1E0DC0FCA3028F0E0E02D
:1006E000F2E080818061808384EF91E00E947F024C
:1006F0008091000284FFDDCF80E001C081E0DF91C6
:10070000CF9108950E94400A8B3411F08534D1F7BF
:10071000853431F40E944503811102C00E94180300
:100720000895CF93DF93E0E0F2E080818F7E8083B5
:10073000EFEFF1E080818F7780831092FE0180815E
:100740008F7780838CE691E00E94440AC0E001C06C
:10075000CD2F8091FF01882394F4EFEFF1E08081A9
:100760008F77808363E271E082E092E00E94340E32
:10077000892B29F484EF91E00E947F0211C0D1E01F
:10078000DC0FCA3028F0E0E0F2E0808180618083F5
:1007900084EF91E00E947F028091000284FFD8CF15
:1007A0001092FE01EFEFF1E080818F77808386E287
:1007B00091E00E94440AC0E001C0CD2F8091FF016A
:1007C00088236CF4EFEFF1E080818F77808363E220
:1007D00071E082E092E00E94340E892B99F0D1E022
:1007E000DC0FCA3028F0E0E0F2E080818061808395
:1007F00084EF91E00E947F028091000284FFDDCFB0
:1008000080E001C081E0DF91CF9108950F931F93A5
:10081000CF93DF93E0E0F2E080818F7E8083808160
:10082000877F8083C0E0D0E001C0E8018091FF01B4
:1008300088230CF5EFEFF1E080818F77808314EC53
:10084000109301028BE091E00E94F90510930102E0
:1008500082E092E00E94F90561E371E082E092E0BB
:100860000E94340E892B39F4E0E0F2E08081886048
:10087000808381E01AC08E010F5F1F4FCA3FD105F0
:1008800028F0E0E0F2E080818061808384E690E0FF
:100890000E947F028091000283FD06C080910002C9
:1008A00084FFC3CF80E001C080E0DF91CF911F9132
:1008B0000F910895CF93DF93E0E0F2E080818F7E87
:1008C0008083EFEFF1E080818F7780831092FE01CB
:1008D00080818F77808386E691E00E94440AC0E0A1
:1008E00001C0CD2F8091FF0188236CF4EFEFF1E080
:1008F00080818F77808363E271E082E092E00E94E2
:10090000340E892B99F0D1E0DC0FCA3028F0E0E0FA
:10091000F2E080818061808384EF91E00E947F0219
:100920008091000284FFDDCF80E001C081E0DF9193
:10093000CF910895CF93DF93E0E0F2E080818F7E46
:100940008083EFEFF1E080818F7780831092FE014A
:1009500080818F77808384E991E00E94440AC0E01F
:1009600001C0CD2F8091FF0188236CF4EFEFF1E0FF
:1009700080818F77808363E271E082E092E00E9461
:10098000340E892B89F0D1E0DC0FCA3028F0E0E08A
:10099000F2E080818061808384EF91E00E947F0299
:1009A0008091000284FFDDCF8091000284FD37C07A
:1009B000E0E0F2E080818F7E80831092FE01EFEF15
:1009C000F1E080818F77808387E791E00E94440A7D
:1009D000C0E001C0CD2F8091FF0188236CF4EFEFC0
:1009E000F1E080818F77808363E271E082E092E0C2
:1009F0000E94340E892BA9F0D1E0DC0FCA3028F018
:100A0000E0E0F2E080818061808384EF91E00E94E9
:100A10007F028091000284FFDDCF80E003C080E090
:100A200001C081E0DF91CF9108950F931F93CF9381
:100A3000DF93EC018B010E945C0A82E00E948E062B
:100A40008BE391E00E94F905CE010E942F038823D9
:100A500089F082E291E00E94440AC8010E94440A9F
:100A600088E491E00E94440A8AE10E943C0A0E94C4
:100A7000820302C00E94180383E291E00E94F905FC
:100A800088EE93E00E947F0282E00E948E06DF9152
:100A9000CF911F910F910895CF93DF93E0E0F2E0A3
:100AA0008081806280830E94550A82E00E948E06C7
:100AB0008EE591E00E94F90582B38F7B82BB84EFC3
:100AC00091E00E947F02C0E007C0D1E0DC0FC2309D
:100AD00038F40E949103CD2F0E9406048823A9F3C5
:100AE0008091000283FF26C00E944503882311F1F4
:100AF0000E945A048823F1F00E949A048823D1F0BE
:100B0000C4ECC09301028BE091E00E94F905C09310
:100B1000010283E291E00E94F90584EF91E00E94D6
:100B20007F0282E00E948E06E0E0F2E08081886031
:100B3000808307C00E941803E0E0F2E08081877F95
:100B40008083E0E0F2E080818F7D8083808183FD7F
:100B500004C00E945C0A80E001C081E0DF91CF9177
:100B6000089585B3877F85BB81E090E00E948D0268
:100B700085B3886085BB0895CF93C82F85B38F70E8
:100B80009C2F907F892B85BB0E94B10525B330E156
:100B9000C39FC0011124922F9F70892B85BB0E9497
:100BA000B10588E290E00E948D02CF91089595B33F
:100BB0009B7F95BB0E94BC05089583E30E94D705E7
:100BC00085E090E00E947F0283E30E94D70584EFD6
:100BD00091E00E948D0282E30E94D70584EF91E0AC
:100BE0000E948D02089595B3946095BB0E94BC0548
:100BF00008950F931F93CF93DF93EC011DC0809155
:100C00000102803919F0803D29F007C080EC809303
:100C1000010203C080E8809301028091010291E00B
:100C2000980F909301020E94D7058E010F5F1F4F0E
:100C300088810E94F305E80188818111E0CFDF916E
:100C4000CF911F910F91089581E00E94D70580E810
:100C50008093010282E090E00E947F02089580E884
:100C60000E94D70580E880930102089580EC0E94DD
:100C7000D70580EC8093010208951F93CF93DF93F3
:100C800083EA91E00E94F9050E94360610E023C035
:100C90008D2F0E94D7058EE20E94F305C83048F4DC
:100CA00022E3C29FC00111248C599F4F0E947F02F2
:100CB00004C082E390E00E947F028D2F0E94D7053E
:100CC00080E20E94F305DF5FCF5F02C0D0ECC0E09E
:100CD000C031F0F21F5F1330C8F3DF91CF911F9145
:100CE000089584B38C6F84BB85B3837085BB88E221
:100CF00090E00E947F020E94DD0588E20E94D705F5
:100D00008CE00E94D70586E00E94D70581E00E9412
:100D1000D7050E9424060E943D060895CF93DF93D5
:100D2000D82F813019F0823021F005C00E942F06A3
:100D300002C00E943606C0E004C080E20E94F305B3
:100D4000CF5FC031D0F3D13019F0D23021F005C0DF
:100D50000E942F0602C00E943606DF91CF910895AF
:100D60006150710920E030E00EC0DC01A20FB31F1A
:100D70004C91FC01E60FF71F50815C9340832F5F7D
:100D80003F4F61507109261737077CF308950F9381
:100D90001F93CF93DF938B019A01C0E0D0E00CC08A
:100DA000F801EC0FFD1F6AE070E00E94F80D805D15
:100DB0008083862F972F2196009791F706C0F80120
:100DC000EC0FFD1F80E380832196C217D307BCF38D
:100DD000BE01C8010E94B006F801EC0FFD1F108291
:100DE000CE01DF91CF911F910F9108954F925F92A5
:100DF0006F927F928F929F92AF92BF92EF92FF92EB
:100E00000F931F93CF93DF932B013C017A0189014C
:100E10000E94420B4B015C01072E000C880B990BC2
:100E20000E947A0B9B01AC01C301B2010E94630ACC
:100E30002B013C0140E050E0B701C4010E94C7060D
:100E4000EC010115110529F1F701E80FF91F8EE2F8
:100E50008083B801012E000C880B990B0E947A0B3D
:100E60009B01AC0160E070E080E291E40E94730CB1
:100E70009B01AC01C301B2010E94060C2196CE0D6C
:100E8000DF1D0E94420BDC01CB01A801BE010E94C4
:100E9000C706DF91CF911F910F91FF90EF90BF9008
:100EA000AF909F908F907F906F905F904F9008953C
:100EB0002F923F924F925F927F928F929F92AF922A
:100EC000BF92CF92DF92EF92FF920F931F93CF9337
:100ED000DF93EC0101C02196F8808F2D90E00E94F5
:100EE000200E892BC1F78DE2F81203C00FEF1FEF20
:100EF00002C001E010E08BE2F81619F08DE2F81262
:100F000001C02196C12CD12C76011DC020E030E01B
:100F100040E251E4C701B6010E94060C6B017C015E
:100F20006B2D70E060537109072E000C880B990B34
:100F30000E947A0B9B01AC01C701B6010E94640AB2
:100F40006B017C012196B8808B2D90E0C0970A97A9
:100F5000E8F28EE2B81201C021960F2E212C312C1E
:100F6000F0E84F2EFFE35F2EF02D27C020E030E0A9
:100F700040E251E4C701B6010E94060C4B015C013E
:100F8000672D70E060537109072E000C880B990BD8
:100F90000E947A0B9B01AC01C501B4010E94640A56
:100FA0006B017C0120E030E040E251E4C201B1017C
:100FB0000E94060C1B012C0121967880872D90E061
:100FC000C0970A9798F2B801110F880B990B0E94ED
:100FD0007A0BA70196010E94060CA20191010E94C2
:100FE000D00ADF91CF911F910F91FF90EF90DF908A
:100FF000CF90BF90AF909F908F907F905F904F90D9
:101000003F902F90089584B3816084BB85B38E7F19
:1010100085BB089581B3806981BB82B38F7682BB23
:10102000089581B3806681BB82B38F7982BB0895B6
:101030000E940A080E941108089582B3806882BB4A
:1010400082B38F7E82BB089582B38F7082BB089576
:1010500087B38F7087BB88B3806F88BB0895CF92AA
:10106000DF92EF92FF920F931F93CF93DF93CDB751
:10107000DEB7C05DD1090FB6F894DEBF0FBECDBF9D
:101080008C0119A220E012C0822F90E0ECE0F0E089
:10109000EC0FFD1FE80FF91F30E33083E1E0F0E0D3
:1010A000EC0FFD1FE80FF91F30832F5F2A3060F32C
:1010B0001C8E1E8A1B861F8A1C8619827E0121E2D5
:1010C000E20EF11CC7010E94290ED7010D900020ED
:1010D000E9F7119789E2E1ECF1E001900D928A9530
:1010E000E1F70E945C0A82B3806482BB84EF91E0E6
:1010F0000E947F02AE01495E5F4FBE01645F7F4F79
:10110000CE0101960E94A00280E011C0282F30E09D
:10111000E1E0F0E0EC0FFD1FE20FF31F9081E7EB41
:10112000F0E0EC0FFD1FE20FF31F90838F5F823022
:1011300068F3E7EBF0E0EC0FFD1FE80FF11D108204
:10114000E2E015C08E2F90E0AC0142505109A1E0C1
:10115000B0E0AC0FBD1F8A0F9B1FDC018C91AAEB86
:10116000B0E0AC0FBD1FA40FB51F8C93EF5FEA304A
:1011700048F3F0E032972AEB30E02C0F3D1FE20FEE
:10118000F31F1082CE0189549F4F0E9458076B01B4
:101190007C01CE0186549F4F0E94580720E030E02A
:1011A00040E752E40E94D00A9B01AC01C701B6019E
:1011B0000E94640A24E030E0AE014F5F5F4F0E945E
:1011C000F60620E011C0822F90E0ECE0F0E0EC0F9A
:1011D000FD1FE80FF91F3081E4ECF0E0EC0FFD1F7C
:1011E000E80FF91F30832F5F233068F3E4ECF0E061
:1011F000EC0FFD1FE20FF11D1082E3E015C08E2FF2
:1012000090E0AC0143505109ACE0B0E0AC0FBD1F21
:101210008A0F9B1FDC018C91A8ECB0E0AC0FBD1FC6
:10122000A40FB51F8C93EF5FEA3048F3F0E03397DB
:1012300028EC30E02C0F3D1FE20FF31F1082CE018F
:101240008C539F4F0E9458076B017C01CE0188533D
:101250009F4F0E94580720E030E040E752E40E9490
:10126000D00A9B01AC01C701B6010E94640A24E0C8
:1012700030E0AE01445F5F4F0E94F606CE01479614
:101280000E94580726E53EE04DEE5FE30E94060C03
:1012900021E030E0AE01495E5F4F0E94F6067E011C
:1012A00031E2E30EF11CBE016F5F7F4FC7010E9468
:1012B000290EF70101900020E9F731978CE290E0C8
:1012C00091838083BE01645F7F4FC7010E94290E16
:1012D000D7010D900020E9F7119788E0EAEEF1E0E0
:1012E00001900D928A95E1F7BE01695E7F4FC701BB
:1012F0000E94290ED7010D900020E9F7119788E090
:10130000E2EFF1E001900D928A95E1F782B38F7BD5
:1013100082BB84EF91E00E947F02B701C8010E9466
:101320001505C053DF4F0FB6F894DEBF0FBECDBF1B
:10133000DF91CF911F910F91FF90EF90DF90CF90B1
:1013400008951F920F920FB60F9211242F933F937F
:101350004F935F936F937F938F939F93AF93BF93BD
:10136000EF93FF938091000285FD52C08091600051
:10137000823089F018F4813031F063C08330E9F0B5
:10138000843019F15EC08CB1823209F05AC082E01B
:101390008093600056C0E091FD01ED3050F481E093
:1013A0008E0F8093FD01F0E08CB1E653FD4F8083FA
:1013B00048C083E08093600044C08CB18A3009F05B
:1013C00040C084E0809360003CC0E091FC0191E06B
:1013D0009E0F9093FC01F0E08CB1E752FD4F8083AB
:1013E0008A3079F5E92FF0E0E952FD4F1082109232
:1013F000D70281E0809360001092FC011092FD0101
:10140000EFEFF1E08081806880830E945C0A19C060
:10141000E091FE0181E08E0F8093FE01F0E09CB12F
:10142000EE5FFD4F90839A3061F4EFEFF1E0908131
:1014300090689083E82FF0E0E050FE4F1082109209
:10144000FE01FF91EF91BF91AF919F918F917F919D
:101450006F915F914F913F912F910F900FBE0F9021
:101460001F9018958AB188618AB980B5866880BD59
:1014700083E389B910BC08955D9BFECF8CB90895B4
:101480005F9BFECF8CB10895CF93DF93EC0107C033
:1014900021960E943C0A81E090E00E947F028881B0
:1014A0008111F6CFDF91CF9108958CB18CB18CB1C1
:1014B0008AB180688AB908958CB18CB18CB18AB137
:1014C0008F778AB908955058BB27AA270E947B0AB4
:1014D0000C94CC0B0E94BE0B38F00E94C50B20F080
:1014E00039F49F3F19F426F40C94BB0B0EF4E095ED
:1014F000E7FB0C94B50BE92F0E94DD0B58F3BA17EC
:10150000620773078407950720F079F4A6F50C9419
:10151000FF0B0EF4E0950B2EBA2FA02D0B01B90195
:1015200090010C01CA01A0011124FF27591B99F059
:10153000593F50F4503E68F11A16F040A22F232F65
:10154000342F4427585FF3CF469537952795A795B5
:10155000F0405395C9F77EF41F16BA0B620B730B5C
:10156000840BBAF09150A1F0FF0FBB1F661F771FCD
:10157000881FC2F70EC0BA0F621F731F841F48F482
:10158000879577956795B795F7959E3F08F0B0CF0B
:101590009395880F08F09927EE0F979587950895F2
:1015A0000E94E40A0C94CC0B0E94C50B58F00E94D8
:1015B000BE0B40F029F45F3F29F00C94B50B51119C
:1015C0000C94000C0C94BB0B0E94DD0B68F3992368
:1015D000B1F3552391F3951B550BBB27AA2762172F
:1015E0007307840738F09F5F5F4F220F331F441F3C
:1015F000AA1FA9F335D00E2E3AF0E0E832D0915070
:101600005040E695001CCAF72BD0FE2F29D0660F5C
:10161000771F881FBB1F261737074807AB07B0E89F
:1016200009F0BB0B802DBF01FF2793585F4F3AF0A5
:101630009E3F510578F00C94B50B0C94000C5F3F65
:10164000E4F3983ED4F3869577956795B795F7952B
:101650009F5FC9F7880F911D9695879597F9089513
:10166000E1E0660F771F881FBB1F621773078407AF
:10167000BA0720F0621B730B840BBA0BEE1F88F7BE
:10168000E09508950E94490B6894B1110C94000CE8
:1016900008950E94E50B88F09F5798F0B92F99277D
:1016A000B751B0F0E1F0660F771F881F991F1AF04D
:1016B000BA95C9F714C0B13091F00E94FF0BB1E0A8
:1016C00008950C94FF0B672F782F8827B85F39F0A7
:1016D000B93FCCF3869577956795B395D9F73EF4E6
:1016E00090958095709561957F4F8F4F9F4F08958E
:1016F000E89409C097FB3EF49095809570956195AC
:101700007F4F8F4F9F4F9923A9F0F92F96E9BB2761
:101710009395F695879577956795B795F111F8CFDD
:10172000FAF4BB0F11F460FF1BC06F5F7F4F8F4F48
:101730009F4F16C0882311F096E911C0772321F03E
:101740009EE8872F762F05C0662371F096E8862FD6
:1017500070E060E02AF09A95660F771F881FDAF72D
:10176000880F9695879597F9089597F99F6780E870
:1017700070E060E008959FEF80EC089500240A94E3
:101780001616170618060906089500240A9412165C
:101790001306140605060895092E0394000C11F48F
:1017A000882352F0BB0F40F4BF2B11F460FF04C03C
:1017B0006F5F7F4F8F4F9F4F089557FD9058440F95
:1017C000551F59F05F3F71F04795880F97FB991FA0
:1017D00061F09F3F79F0879508951216130614065D
:1017E000551FF2CF4695F1DF08C0161617061806EA
:1017F000991FF1CF86957105610508940895E894C5
:10180000BB2766277727CB0197F908950E94190C0B
:101810000C94CC0B0E94BE0B38F00E94C50B20F03C
:10182000952311F00C94B50B0C94BB0B11240C9464
:10183000000C0E94DD0B70F3959FC1F3950F50E0F3
:10184000551F629FF001729FBB27F00DB11D639F72
:10185000AA27F00DB11DAA1F649F6627B00DA11D18
:10186000661F829F2227B00DA11D621F739FB00DBE
:10187000A11D621F839FA00D611D221F749F33272E
:10188000A00D611D231F849F600D211D822F762FC7
:101890006A2F11249F5750409AF0F1F088234AF0A4
:1018A000EE0FFF1FBB1F661F771F881F9150504010
:1018B000A9F79E3F510580F00C94B50B0C94000CD9
:1018C0005F3FE4F3983ED4F3869577956795B79597
:1018D000F795E7959F5FC1F7FE2B880F911D9695B1
:1018E000879597F90895FA01EE0FFF1F30962105AD
:1018F0003105A1F16115710561F48038BFE39B07E3
:1019000049F168949038810561F08038BFEF9B07FA
:1019100041F099234AF5FF3FE1053105210519F111
:10192000E8940894E795D901AA2329F4AB2FBE2F98
:10193000F85FD0F310C0FF5F70F4A695E0F7F739B9
:1019400050F019F0FF3A38F49F779F930DD00F9025
:1019500007FC9058089546F00C94BB0B60E070E0D3
:1019600080E89FE308954FE79F775F934F933F93FE
:101970002F930E946E0D2F913F914F915F910E9486
:10198000060C0C94CB0C29F416F00C94B50B0C94AB
:10199000FF0B0C94BB0B0E94E50BA8F39638A0F745
:1019A00007F80F92E8942BE33AEA48EB5FE70E94CE
:1019B0001C0C0F920F920F924DB75EB70F920E94C0
:1019C000B60DE4E5F0E00E94FD0C4F915F91EF91C0
:1019D000FF91E595EE1FFF1F49F0FE57E068442791
:1019E000EE0F441FFA95E1F74195550B0E94300D1B
:1019F0000F9007FE0C94240D0895DF93CF931F934F
:101A00000F93FF92EF92DF927B018C01689406C0E6
:101A1000DA2EEF010E94190CFE01E894A5912591A0
:101A2000359145915591A6F3EF010E947B0AFE0185
:101A30009701A801DA9469F7DF90EF90FF900F917A
:101A40001F91CF91DF9108959B01AC0160E070E0A0
:101A500080E89FE30C94D00A0C94B50B0C94EA0D2B
:101A60000E94E50BD8F39923C9F3940F511DA3F3FA
:101A70009150504094F059F0882332F0660F771F50
:101A8000881F91505040C1F79E3F51052CF7880F99
:101A9000911D9695879597F908955F3FACF0983E14
:101AA0009CF0BB27869577956795B79508F4B1604C
:101AB0009395C1F7BB0F58F711F460FFE8CF6F5F44
:101AC0007F4F8F4F9F4FE3CF0C94000C16F00C9478
:101AD000EA0D0C94BB0B68940C94B50B0E94E50BBB
:101AE000A8F39923C1F3AEF3DF93CF931F930F9322
:101AF000FF92C92FDD2788232AF02197660F771FD1
:101B0000881FDAF720E030E040E85FEB9FE3883998
:101B100020F0803E38F021968F770E94640AECE72F
:101B2000F0E004C00E94640AE9EAF0E00E94FD0CC3
:101B30008B01BE01EC01FB2E6F5771097595771F64
:101B4000880B990B0E947A0B28E132E741E35FE3AF
:101B50000E94190CAF2D9801AE01FF900F911F91BB
:101B6000CF91DF910E947B0A0C94CC0BFA01DC012F
:101B7000AA0FBB1F9B01AC01BF5728F422273327B4
:101B80004427507820C0B75190F4AB2F00244695DD
:101B900037952795011CA395D2F3002071F0220FF1
:101BA000331F441FB395DAF30ED00C94630A6130EF
:101BB0007105A0E88A07B94630F49B01AC0166279D
:101BC000772788279078309621F0208331834283CD
:101BD000538308959F3F31F0915020F48795779576
:101BE0006795B795880F911D9695879597F90895F4
:101BF00097FB072E16F4009407D077FD09D00E94BA
:101C00000C0E07FC05D03EF4909581959F4F0895EA
:101C1000709561957F4F0895AA1BBB1B51E107C0CA
:101C2000AA1FBB1FA617B70710F0A61BB70B881F6C
:101C3000991F5A95A9F780959095BC01CD010895FB
:101C400091110C943D0E803219F089508550C8F7DF
:101C50000895FB01DC010D900020E9F71197019038
:101C60000D920020E1F70895FB01DC018D910190B8
:101C700080190110D9F3990B0895992788270895A1
:041C8000F894FFCF06
:101C8400012020534D4152542048454C4D455400A9
:101C940020526573657420746F205354415254006C
:101CA4002048656C6D657420576561726564002019
:101CB40048656C6D65742052656D6F7665640020AF
:101CC40056656869636C652053746F707065640051
:101CD400416C636F686F6C20436F6E73756D6564E0
:101CE400004163636964656E74204F636375722792
:101CF4006400596F75722056656869636C65204786
:101D04006F74204163636964656E7420617420009C
:101D14003937313636323235343100205665686908
:101D2400636C65204D6F76696E670020202020204B
:101D340020202020202020004641494C45442100F9
:101D4400220D004F4B0041542B4346554E3D310D5F
:101D540000534D532052656164790053656E646984
:101D64006E6720534D533A002E204175746F6D6198
:101D740074656420534D532042793A5348004753C5
:101D84004D3A003B0D00415445300D0041542B4366
:101D940046554E3D300D0041542B434E4D493D3286
:101DA4002C322C322C302C300D0041542B434D4717
:101DB400533D220041542B434D47463D310D0041D4
:101DC400540D002020494E495449414C495A494E2A
:101DD4004700204C41543A002026204C4F4E3A20D4
:101DE400004C6F6361746564204020687474703AB9
:101DF4002F2F6D6170732E676F6F676C652E636F25
:101E04006D2F6D6170733F713D0020537065656483
:0A1E14003A0020696E204B6D680053
:00000001FF
